:100000000C9486000C94AE000C94AE000C94AE00E0
:100010000C94AE000C94AE000C94AE000C94AE00A8
:100020000C94AE000C94AE000C94AE000C94AE0098
:100030000C94AE000C94AE000C94AE000C94AE0088
:100040000C94380E0C94AE000C94060E0C94E00D3B
:100050000C94AE000C94AE000C94AE000C94AE0068
:100060000C94AE000C94AE00CDCCCC3D0AD7233C12
:1000700017B7D13877CC2B329595E6241FB14F0AAC
:100080000000803FCDCCCC3D6F12833A95BFD63374
:100090007D1D9026B3CE010C000020410000C84217
:1000A00000401C4620BCBE4CCA1B0E5AAEC59D74F7
:1000B00000000000240027002A00000000002500A6
:1000C00028002B0000000000230026002900040463
:1000D00004040404040402020202020203030303F0
:1000E00003030102040810204080010204081020CC
:1000F00001020408102000000008000201000003B3
:10010000040700000000000000003B1211241FBE85
:10011000CFEFD8E0DEBFCDBF22E0A4E0B2E001C067
:100120001D92A33CB207E1F712E0A0E0B1E0EEE6D9
:10013000FDE202C005900D92A430B107D9F710E09E
:10014000C6E8D0E004C02197FE010E94B414C5386F
:10015000D107C9F70E94820E0C94B5160C940000CA
:10016000AF92BF92CF92DF92EF92FF920F931F93C5
:10017000CF93DF936C017B018B01040F151FEB0103
:100180005E01AE18BF08C017D10759F06991D601BA
:10019000ED91FC910190F081E02DC6010995892B2C
:1001A00079F7C501DF91CF911F910F91FF90EF90EB
:1001B000DF90CF90BF90AF900895FC01538D448D98
:1001C000252F30E0842F90E0821B930B541710F002
:1001D000CF96089501970895FC01918D828D98170F
:1001E00061F0A28DAE0FBF2FB11D5D968C91928DE7
:1001F0009F5F9F73928F90E008958FEF9FEF089518
:100200002FB7F89480911A0290911B02A0911C02C2
:10021000B0911D022FBF80932A0290932B02A093CE
:100220002C02B0932D0282E292E00E94EC0097FF34
:1002300026C02FB7F89480911A0290911B02A091CA
:100240001C02B0911D022FBF40912A0250912B0237
:1002500060912C0270912D02841B950BA60BB70B9D
:100260004091260250912702609128027091290244
:1002700084179507A607B707B0F28FEF9FEF089591
:10028000FC01918D828D981731F0828DE80FF11D60
:10029000858D90E008958FEF9FEF0895FC01918D7B
:1002A000228D892F90E0805C9F4F821B91098F7374
:1002B0009927089582E292E00E944E0121E0892B65
:1002C00009F420E0822F089580E090E0892B29F046
:1002D0000E945A0181110C9400000895FC01A48D24
:1002E000A80FB92FB11DA35ABF4F2C91848D90E058
:1002F00001968F739927848FA689B7892C93A0893B
:10030000B1898C91837080648C93938D848D9813C4
:1003100006C00288F389E02D80818F7D8083089557
:10032000EF92FF920F931F93CF93DF93EC0181E045
:10033000888F9B8D8C8D98131AC0E889F9898081EC
:1003400085FF15C09FB7F894EE89FF896083E8891F
:10035000F98980818370806480839FBF81E090E011
:10036000DF91CF911F910F91FF90EF900895F62E9E
:100370000B8D10E00F5F1F4F0F731127E02E8C8D38
:100380008E110CC00FB607FCFACFE889F98980817D
:1003900085FFF5CFCE010E946E01F1CFEB8DEC0F02
:1003A000FD2FF11DE35AFF4FF0829FB7F8940B8F9A
:1003B000EA89FB8980818062CFCFCF93DF93EC0104
:1003C000888D8823B9F0AA89BB89E889F9898C913D
:1003D00085FD03C0808186FD0DC00FB607FCF7CFF9
:1003E0008C9185FFF2CF808185FFEDCFCE010E94F9
:1003F0006E01E9CFDF91CF910895833081F028F429
:10040000813099F08230A9F008958730A9F08830C2
:10041000C9F08430B1F4809180008F7D03C0809159
:1004200080008F7780938000089584B58F7784BD96
:10043000089584B58F7DFBCF8091B0008F77809336
:10044000B00008958091B0008F7DF9CFCF93DF93F6
:10045000282F30E0F901EA50FF4F8491F901EE5165
:10046000FF4FD491F901E253FF4FC491CC23A1F087
:1004700081110E94FD01EC2FF0E0EE0FFF1FEC5305
:10048000FF4FA591B491EC91ED2381E090E009F448
:1004900080E0DF91CF91089580E090E0FACF1F9344
:1004A000CF93DF93282F30E0F901EA50FF4F84917A
:1004B000F901EE51FF4FD491F901E253FF4FC4917E
:1004C000CC23A9F0162F81110E94FD01EC2FF0E042
:1004D000EE0FFF1FE654FF4FA591B4918FB7F8942C
:1004E000EC91111108C0D095DE23DC938FBFDF9112
:1004F000CF911F910895DE2BF8CFCF93DF9390E03B
:10050000FC01EE51FF4F249182539F4FFC018491D7
:100510008823D1F090E0880F991FFC01E055FF4F30
:10052000A591B491FC01E654FF4FC591D49161119E
:100530000EC09FB7F8948C91E22FE0958E238C9398
:100540002881E223E8839FBFDF91CF9108958FB781
:10055000F894EC91E22BEC938FBFF6CF3FB7F89471
:100560008091050290910602A0910702B0910802C5
:1005700026B5A89B05C02F3F19F00196A11DB11DFE
:100580003FBFBA2FA92F982F8827BC01CD01620F3A
:10059000711D811D911D42E0660F771F881F991FF5
:1005A0004A95D1F708958F929F92AF92BF92CF92C2
:1005B000DF92EF92FF924B015C010E94AE026B0151
:1005C0007C010E94AE026C197D098E099F09683E6C
:1005D000734081059105A8F321E0821A9108A108D2
:1005E000B10888EEC80E83E0D81EE11CF11C81140E
:1005F0009104A104B10429F7FF90EF90DF90CF9010
:10060000BF90AF909F908F9008954F925F926F929E
:100610007F92AF92BF92CF92DF92EF92FF920F93B1
:100620001F93CF93DF9300D000D01F92CDB7DEB7DA
:1006300019821A821B821C821D8261E082E00E9464
:100640007D0260E082E00E944F0262E170E080E0A3
:1006500090E00E94D30261E082E00E944F028BE9A9
:1006600090E00197F1F760E082E00E947D0201E1F5
:1006700017E282E00E942602892BC9F40150110979
:10068000C1F78EEF9FEF0F900F900F900F900F908C
:10069000DF91CF911F910F91FF90EF90DF90CF905E
:1006A000BF90AF907F906F905F904F90089501E161
:1006B00017E282E00E942602019721F401501109FD
:1006C000C1F7DFCF28E2E22EF12C17E000E0CC24C6
:1006D000C394D12C91E1A92E97E2B92E82E00E9419
:1006E0002602892B29F481E0A81AB108B9F7C9CFED
:1006F0000E94AE022B013C0181E1A82E87E2B82EB8
:1007000082E00E942602019729F481E0A81AB1082C
:10071000B9F7B7CF0E94AE02641975098609970927
:10072000693271058105910578F0E1E0F0E0EC0FA8
:10073000FD1FE00FF11D80819601012E01C0220FE7
:100740000A94EAF7822B8083111121C00F5F17E012
:1007500081E0E81AF10809F0BDCF8981282F30E047
:1007600030931F0220931E022B81422F50E05093A2
:10077000210240932002280F81E090E03D81231365
:1007800002C090E080E09195819591097CCF115055
:10079000DFCF0895CF93DF93EC0188819981DC014D
:1007A000ED91FC910190F081E02D09952A813B812A
:1007B000820F931F9B838A83DF91CF910895CF93FC
:1007C000DF93EC0188819981DC01ED91FC9102803D
:1007D000F381E02D09952A813B81820F931F9B8332
:1007E0008A83DF91CF9108958F929F92AF92BF92AB
:1007F000CF92DF92EF92FF920F931F93CF93DF93ED
:10080000CDB7DEB766970FB6F894DEBF0FBECDBF8B
:100810006C018E01095E1F4F78018AE0882E912CB1
:10082000A12CB12CCB01BA01A50194010E94921414
:10083000942F852F605DF80162938F01A901692FC4
:10084000782F411551056105710561F7A7014E1B10
:100850005F0BBF01C6010E94DF0366960FB6F894D6
:10086000DEBF0FBECDBFDF91CF911F910F91FF90E3
:10087000EF90DF90CF90BF90AF909F908F900895B2
:1008800080339CF08A3324F08F3524F08B3724F4A6
:1008900081E0089581344CF08B35D4F393ED980FBB
:1008A00081E09230B0F380E008958B32B9F7F0CF59
:1008B000FC018685811114C0A185B285838594854C
:1008C0002FEF3FEFA817B90730F4CD0101969287BB
:1008D00081872C9130E037FD20E0258781E08687F5
:1008E000858508951F93CF93DF93EC01162F0E9407
:1008F0005804811306C01E8681E0DF91CF911F91BD
:10090000089580E0FACFCF93DF93EC01CE010E94EF
:1009100058048B303CF489304CF4882349F081E052
:10092000888710C08D3011F08032C9F71E86EECF57
:10093000888581110AC081E090E0CF5ADF4F99830A
:10094000888380E0DF91CF91089582E090E0F5CF39
:100950000895FC0124813581A9014F5F5F4F868195
:1009600097814817590748F48281938155834483BE
:10097000FC01E20FF31F608308950190F081E02DE8
:1009800081E0808708959F92AF92BF92CF92DF92CD
:10099000EF92FF920F931F93CF93DF9300D000D07D
:1009A0001F92CDB7DEB78C010E945804D82ED80113
:1009B0001E961C92F12CE12C60EFC62EC8010E94FD
:1009C0005804F8011686D81609F4BDC0811119C063
:1009D000F801EF5AFF4F82E090E09183808380E03E
:1009E0000F900F900F900F900F90DF91CF911F916C
:1009F0000F91FF90EF90DF90CF90BF90AF909F90BE
:100A000008958C3509F09DC0C8010E9458048823C0
:100A1000F9F2E4E2F1E0853709F087C0D8011E96CB
:100A20001C9254E0952EB12CA12CC8010E945804B0
:100A3000882371F281344CF48053803148F0F801FE
:100A4000EF5AFF4F83E090E0C8CF8F7D8753F5CFFB
:100A500044E0AA0CBB1C4A95E1F7A82AF8011686C7
:100A60009A949110E2CFC501985D8115944020F4CD
:100A7000750123E0F222A2CFC5019C5D811594404F
:100A8000A8F4B3E0BB22B701762F6627770F770F64
:100A90006A297B2990E080E0019660387105810524
:100AA000910540F4C8010E94A90488CFB50190E0E7
:100AB00080E0F3CF1982262F2F7320682A8326E047
:100AC00096958795779567952A95D1F76032710548
:100AD00080F4606C6B835E01E4E0AE0EB11CD50166
:100AE0006E915D01662309F469CFC8010E94A904D3
:100AF000F6CF262F2F7320682B8386E07695679597
:100B00008A95E1F76031710538F4606E6C835E019F
:100B1000F5E0AF0EB11CE3CF60686C83CD825E015F
:100B200026E0A20EB11CDBCF32969081992309F406
:100B300086CF8913F9CF8181882309F480CFF8010A
:100B40001686682FAFCF0190F081E02D8085882335
:100B500031F0F801EF5AFF4F84E090E03ECF81E0A2
:100B60003FCF4F925F926F927F928F929F92AF9200
:100B7000BF92CF92DF92EF92FF920F931F93CF938A
:100B8000DF93EC018B0188818B32C9F18D32C1F585
:100B90002196FF24F394888190ED980F9A3018F0F5
:100BA0008E3209F04DC160E070E0CB01FE01219171
:100BB000A0ED8A2E820E39E0381520F16A3949E914
:100BC0007407840749E1940738F5AAE0B0E09B0177
:100BD000AC010E948C13912CB12CA12C2401350165
:100BE00040945094609470944616570668067906AF
:100BF00098F0680D791D8A1D9B1DEF01D7CF2196B6
:100C0000F12CC9CF211108C0FF20F1F1613071052D
:100C1000810550E89507A0F0E12CEAE08E2E912C9A
:100C2000A12CB12C61157105F0E88F079105C0F179
:100C3000A50194010E949214CA01B901E394F2CF74
:100C4000F801248120782A6024839B01AC01882745
:100C50009927DC01821B930BA40BB50B8083918336
:100C6000A283B3838F2DDF91CF911F910F91FF90BE
:100C7000EF90DF90CF90BF90AF909F908F907F903C
:100C80006F905F904F900895F8012481207828603C
:100C900024836083718382839383FF24F394E2CF60
:100CA000FE01299130ED320F3A3010F4E394F8CF81
:100CB0002E32F1F4EF012196FE012196208150EDB4
:100CC000D52ED20E29E02D1598F06C3C3CEC730724
:100CD0003CE08307910580F7AAE0B0E09B01AC01FE
:100CE0000E948C136D0D711D811D911DEA94E4CF3E
:100CF00020812F7DD0E0C0E0253409F05DC0218146
:100D00002D32D9F53296CC24C394DF01D0E0C0E077
:100D10002E2D0E2C000C330B4AE0B42EFD01DD907D
:100D200040ED4D0D4A3008F042C0BC9EA001BD9E72
:100D3000500D1124CD2DDD0CDD0BE097C40FD51F18
:100D4000AE01420F531F4732510544F3F80184812D
:100D5000CC20D1F040E050E060E070E8F11003C03A
:100D600040E050E0BA0180788C60F80184834083D1
:100D7000518362837383FC2C75CF2B3219F031962B
:100D8000C12CC3CF3296FCCF40E050E060E87FEF4B
:100D9000F11004C040E050E060E87FE780788C60AC
:100DA000F8018483408351836283738376CFCC20A0
:100DB00019F0D195C195D1092081211141C0CE0DE5
:100DC000D11DE7FCDA950E946D121C161D0604F574
:100DD000E12CC0FF0CC024E0E29EF0011124E85693
:100DE000FF4F25913591459154910E94CE12D59592
:100DF000C795E394209769F7F1109058F801248182
:100E000020782C602483608371838283938345CF11
:100E1000D195C195D109E12C209771F3C0FF0CC089
:100E200044E0E49EF0011124E859FF4F25913591EB
:100E3000459154910E94CE12D595C795E394ECCF7D
:100E4000F12C10CFCF93DF9300D000D01F92CDB7FD
:100E5000DEB7FC0194819F77963091F030F49430A6
:100E600020F560E070E0CB0111C09A30B9F09C3001
:100E700049F19830B1F7608171818281938104C01A
:100E8000608170E090E080E00E946D120F900F9002
:100E90000F900F900F90DF91CF9108956081718135
:100EA000828193810E946F12F1CF808191811D8296
:100EB000BE016F5F7F4F0E94B105CE0101960E9477
:100EC0002207E4CF6081718182819381DFCFCF934C
:100ED000DF93DC01EB01EC81FD818A819B81089627
:100EE000E817F90740F481E08887F0E0E0E0CF01FF
:100EF000DF91CF9108953897FD83EC833097B9F354
:100F00001296CD91DC911397209791F0CF018C1B15
:100F10009D0B23E0959587952A95E1F78D83139690
:100F2000FC93EE9312971582148217821682DFCFFC
:100F30001196FC93EE93F3CFEF92FF920F931F93D2
:100F4000CF93DF937C01DC0112962D913C91139796
:100F5000ED91FC91AB01420F531FEF01C60FD71F5C
:100F6000C217D307A0F4888181110BC0E901CF011A
:100F70004C175D0751F00991DC011D91CD0101175E
:100F8000B9F381918111FDCFE8CF309751F4620F11
:100F9000731FCB010196F70193838283DB011C92BF
:100FA000F901CF01DF91CF911F910F91FF90EF9049
:100FB0000895FC012581222339F0F8E02F029001E9
:100FC0001124820F931F089590E080E00895FC01A2
:100FD00001900020E9F73197AF01481B590BBC0184
:100FE00082E292E00C94B000CF93DF930E94E70777
:100FF000EC0185E391E00E94E7078C0F9D1FDF91D4
:10100000CF910895FB0101900020E9F73197AF01DE
:10101000461B570B0C94DF031F93CF93DF93E4E23F
:10102000F1E01281112379F0329621816213F9CF18
:10103000EC016CE50E94CA03612FCE01DF91CF91D4
:101040001F910C94CA036111F9CF68E371E0DF913D
:10105000CF911F910C9402082F923F924F925F9272
:101060006F927F928F929F92AF92BF92CF92DF92B8
:10107000EF92FF920F931F93CF93DF93CDB7DEB71D
:101080006C970FB6F894DEBF0FBECDBF8C011B016D
:10109000DC0114968C9114978F77863009F492C2F4
:1010A00068F58230A0F11296ED90FC901397CC90E9
:1010B0001196DC90843008F056C2A701B601C10138
:1010C0000E94DF03F101828193816C960FB6F89440
:1010D000DEBF0FBECDBFDF91CF911F910F91FF906B
:1010E000EF90DF90CF90BF90AF909F908F907F90C8
:1010F0006F905F904F903F902F9008958C3069F1E2
:1011000060F4883009F459C28A3009F43FC26FE3B1
:1011100071E0C1010E940208E5C1803209F4ECC10E
:101120008034A9F76BE5C1010E94CA03F801008170
:1011300011810115110509F4DAC1B101C8010E943C
:101140002C08C8010E94D9078C01892B09F4CFC152
:101150006CE2C1010E94CA03ECCFF801C080D180CB
:10116000E280F380A7019601C701B6010E946812D0
:101170008111CDCF20E030E0A901C701B6010E9466
:101180006812882379F0A7019601C701B6010E9471
:10119000DE139B01AC01C701B6010E9468128823CF
:1011A00009F4B5CF20E030E0A901C701B6010E94E3
:1011B000681287FF08C06DE2C1010E94CA03F7FAF6
:1011C000F094F7F8F09420E836E948E15BE4C701D1
:1011D000B6010E94791487FD81C074E1A72EB12C5D
:1011E00000E210E0188E1F8AF501E856FF4F2591A6
:1011F000359145915491C701B6010E94791487FD3C
:1012000013C0F501E859FF4F25913591459154914F
:10121000C701B6010E94CE126B017C012F89388D67
:10122000200F311F388F2F8B1595079534E0A31AA7
:10123000B1088CEFA8168FEFB806B1F655245A9472
:1012400020E030E0A901C701B6010E947914181608
:101250000CF04BC02CEA35EC47E257E3C701B6016E
:101260000E94681218160CF440C0A52DB4E0AB0221
:10127000C0011124B12CA12CFC01E058FF4F3F010B
:101280009C0128563F4F49013FEF531671F1F3017E
:10129000EA0DFB1D2591359145915491C701B60189
:1012A0000E94681287FF13C0F401EA0DFB1D25910F
:1012B000359145915491C701B6010E94CE126B0140
:1012C0007C018F89988D801B910B988F8F8B159542
:1012D00007955A9494E0A91AB108D6CF00E210E01D
:1012E00055E0552E188E1F8AABCFC701B6010E945C
:1012F0004A144B015C012B013C0106E080E492E4BE
:10130000AFE0B0E0898F9A8FAB8FBC8F102F015068
:101310009AE04916510461047104C8F0698D7A8D10
:101320008B8D9C8D2AE030E040E050E00E949214CA
:10133000298F3A8F4B8F5C8FC301B2012AE030E0D6
:1013400040E050E00E94921429013A01DFCFC5012C
:10135000B4010E946D129B01AC01C701B6010E944D
:10136000DD136B017C01698D7A8D8B8D9C8D0E94C4
:101370006D129B01AC01C701B6010E94CE122B0178
:101380003C010E944A146B017C010E946D129B017A
:10139000AC01C301B2010E94DD139B01AC010E94AC
:1013A000DE130E944A14C60ED71EE81EF91E898D50
:1013B0009A8DAB8DBC8DC816D906EA06FB06D8F00F
:1013C0009FEF891A990AA90AB90AAF89B88DAB2B80
:1013D00039F1BAE08B169104A104B10408F1EF8948
:1013E000F88D3196F88FEF8BC12CD12C7601812CA2
:1013F000912C540183942AE0422E512C612C712CA3
:10140000C701B601A30192010E949214672B682BB9
:10141000692B51F4111644F469017A011150F0CF8F
:10142000C12CD12C7601E7CFB501A401C1010E94E6
:10143000F403112371F14E01F1E18F0E911C012F84
:1014400054019AE0492E512C612C712C015068F006
:10145000C701B601A30192010E949214605DD401FC
:101460006E934D0169017A01F1CF812F90E0BC01AB
:1014700060957095F501E81BF90B31978EE280833A
:1014800044275527461B570B6A0D7B1DC1010E943F
:10149000DF03EF89F88DEF2B29F165E6C1010E948A
:1014A000CA030F89188D17FF07C06DE2C1010E94A2
:1014B000CA03119501951109FE0177969F018AE0F3
:1014C000E82EF12CC801B7010E947E14805D829342
:1014D0008B01672BB9F7A9014E1B5F0BBF01C1013F
:1014E0000E94DF03D10112968D919C91EECD6DE5A6
:1014F000C1010E94CA03F6CF6BE7C1010E94CA0373
:10150000F801008111810115110559F1D8011696D4
:10151000CC9016971796DC9062E2C1010E94CA0334
:101520007601F70161917F01662321F0C1010E94DC
:101530000C08F7CF62E2C1010E94CA036AE3C1014D
:101540000E94CA03B101C8010E942C08C8010E9470
:10155000D9078C01892B29F06CE2C1010E94CA03D2
:10156000D2CF6DE7C5CF62E2C1010E94CA038601F6
:10157000E00EF11EE016F10639F0F80161918F01DD
:10158000C1010E940C08F6CF62E2B2CFCD90DD908F
:10159000ED90FC90B701A601F7FE0BC06DE2C10112
:1015A0000E94CA0344275527BA014C195D096E09E8
:1015B0007F09C1010E94F40385CD4D915D916D912C
:1015C0007C91F7CF8C9164E471E0811102C069E4F1
:1015D00071E0C1010E94020875CDCF93DF9300D066
:1015E00000D0CDB7DEB77A8369831C821B82BE012F
:1015F0006F5F7F4F0A960E942C080F900F900F90FC
:101600000F90DF91CF910895CF93DF93EC0180E0AD
:1016100094E00E94BA149C013C5F009711F430E002
:1016200020E09A8389839C838B833E832D83388734
:101630002F8319861E86DF91CF910895FC0180814A
:101640009181009711F00C9456150895FC01818149
:101650009281009711F00C9456150895FC01248195
:101660003581232B39F421E0FB018081882349F067
:1016700020E007C0808191810E94A51621E0892B7E
:10168000B9F7822F08950F931F93CF93DF93D0E084
:10169000C0E06115710591F08B01FC01C081D18121
:1016A000209761F06E817F81C8010E94A516892B69
:1016B00029F0CE010E94D907EC01F2CFCE01DF91D3
:1016C000CF911F910F9108959F92AF92BF92CF92A9
:1016D000DF92EF92FF920F931F93CF93DF93EC0172
:1016E0008B01E42E0E948304D82E81110EC0F12CB0
:1016F0008F2DDF91CF911F910F91FF90EF90DF9091
:10170000CF90BF90AF909F900895CE010E94580453
:10171000873209F42CC114F5823209F428C1CE01B4
:101720000E945804E82E5E01F1E1AF0EB11CF12CCD
:101730009A2CCB2C8E2D0E944004882309F443C19F
:101740008FE3F81609F43FC11E86F394F501E19288
:101750005F01CE010E945804E82EECCF8B3509F4CE
:101760004AC08B37E1F6F8018481807880628483F7
:101770001182108213821282EE2009F447C01E8665
:10178000CE010E948304882309F4B1CF6DE7CE0116
:101790000E947204F82E81114FC0CC24C394EA94A5
:1017A000E881F981828193819B838A8384819581F9
:1017B00022813381821B930B9F838E831D821C8227
:1017C000892B09F4C086CE010E945804873209F49F
:1017D00060C0823209F45DC0CE010E945804D82E48
:1017E0000E9440048111AEC0CF5ADF4F83E090E0E9
:1017F000998388837DCFF801848180788064848395
:101800001182108213821282E11007C0CF5ADF4F7B
:1018100085E090E0998388836ACF1E86CE010E947E
:101820008304882309F463CF6DE5CE010E9472041E
:10183000F82EEA94882311F0FD2C5ACF6F85788911
:10184000C8010E946707009729F4CF5ADF4F84E050
:1018500090E0CECF4E2DBC01CE010E94640B8823B8
:1018600009F445CFCE010E948304882309F43FCFB9
:101870006DE5CE010E9472048111DECF6CE2CE01D3
:101880000E9472048111DACFCF5ADF4F83E090E0DB
:10189000C1CFCE010E94C304882309F429CFCE0111
:1018A0000E948304882309F423CF6AE3CE010E94B7
:1018B0007204882309F498CFEA81FB818C819D8191
:1018C000E80FF91F1082AC80BD806A817B81C8015E
:1018D0000E94430BBC01892BA9F4B5018881998131
:1018E0000E949C075C016F857889C8010E94670788
:1018F000FC01892B09F4A9CF848180688483B78295
:10190000A682BF014E2DCE010E94640B882309F4EC
:10191000EFCECE010E948304882309F4E9CE6DE75F
:10192000CE010E947204811120C06CE2CE010E949F
:101930007204882309F458CFCE010E9483048111D8
:101940002FCFD6CE1E866D2DCE010E94A904CE01CA
:101950000E945804D82E0E9440048111F3CFE881E0
:10196000F9818085811171CF9ACFF82EC1CEE8819F
:10197000F981828193819B838A83848195812281ED
:101980003381821B930B9F838E831D821C82892B44
:1019900011F481E08087CE010E94C304F82E8823D1
:1019A00009F4A5CECC80DD80B601888199810E94A2
:1019B0009C07F8012481207825602483918380830B
:1019C000D382C28295CEFE01EF0DF11D118A898965
:1019D000843781F4F801848180788660848381E093
:1019E0008083F4E0FF1609F427CFCF5ADF4F82E05F
:1019F00090E010CF863641F4F801848180788660CB
:101A000084831082F5E0EECF8E3621F484E0F81264
:101A1000ECCF12CFB801892D9C2D0E94B1058823EF
:101A200009F432CF09CFEF92FF920F931F93CF9318
:101A3000DF93EC018C81982F9F7739F48078806256
:101A40008C83198218821B821A828C8185FF1DC0AB
:101A500061157105D1F07A018B01CE010E94430B13
:101A6000009761F4B701CE010E946707009731F03B
:101A7000FC0124812F77248317830683DF91CF9184
:101A80001F910F91FF90EF90089590E080E0F6CFC6
:101A9000FC01248125FD0C94430B90E080E0089527
:101AA0000F931F93CF93DF93EC0188819981009767
:101AB00059F02A813B812617370730F081E0DF910A
:101AC000CF911F910F9108958B016F5F7F4F0E94FF
:101AD000DF15009759F0998388831B830A832C8133
:101AE0003D81232B59F7FC011082E8CF80E0E7CF3E
:101AF000CF92DF92EF92FF920F931F93CF93DF93DA
:101B000000D0CDB7DEB78C01C62EFC011182108249
:101B1000138212821582148270E060E00E94500DE0
:101B2000F80120813181811137C02115310519F06B
:101B3000C9010E945615F801118210821582148283
:101B4000138212820E9400010C2C000CDD0897FD0C
:101B50002BC08C159D0541F189831A82F801E48020
:101B6000F580FFEFEF1AFF0AB701C8010E94500D80
:101B7000882379F0F8012081318184819581BE012B
:101B80006F5F7F4F820F931F0E94AE16F801F582A0
:101B9000E4820E940001DBCF1582148264E371E0CD
:101BA000C9010E94AE16CECFC8010F900F90DF91F1
:101BB000CF911F910F91FF90EF90DF90CF900895FC
:101BC0001F920F920FB60F9211242F933F934F93B2
:101BD0005F936F937F938F939F93AF93BF93EF9395
:101BE000FF9382E292E00E946E01FF91EF91BF911C
:101BF000AF919F918F917F916F915F914F913F91A5
:101C00002F910F900FBE0F901F9018951F920F925B
:101C10000FB60F9211242F938F939F93EF93FF93FF
:101C2000E0913202F09133028081E0913802F0912C
:101C3000390282FD1BC0908180913B028F5F8F73C0
:101C400020913C02821741F0E0913B02F0E0EE5D12
:101C5000FD4F958F80933B02FF91EF919F918F9164
:101C60002F910F900FBE0F901F9018958081F4CF89
:101C70001F920F920FB60F9211242F933F938F93C1
:101C80009F93AF93BF9380911A0290911B02A091F2
:101C90001C02B0911D023091040223E0230F2D3766
:101CA00058F50196A11DB11D2093040280931A02DC
:101CB00090931B02A0931C02B0931D028091050219
:101CC00090910602A0910702B09108020196A11D11
:101CD000B11D8093050290930602A0930702B09372
:101CE0000802BF91AF919F918F913F912F910F90DB
:101CF0000FBE0F901F90189526E8230F0296A11D86
:101D0000B11DD2CFCF93DF93CDB7DEB7C858D1097D
:101D10000FB6F894DEBF0FBECDBF789484B5826055
:101D200084BD84B5816084BD85B5826085BD85B57F
:101D3000816085BD80916E00816080936E001092FD
:101D40008100809181008260809381008091810078
:101D50008160809381008091800081608093800009
:101D60008091B10084608093B1008091B000816067
:101D70008093B00080917A00846080937A00809193
:101D80007A00826080937A0080917A0081608093EB
:101D90007A0080917A00806880937A001092C10066
:101DA00060E082E00E947D0261E083E00E947D02AB
:101DB00061E08DE00E947D0261E084E00E947D028E
:101DC00061E084E00E944F02E0913202F091330220
:101DD00082E08083E0912E02F0912F021082E09148
:101DE0003002F09131028FEC808310923A02E09140
:101DF0003602F091370286E08083E0913402F09160
:101E00003502808180618083E0913402F091350257
:101E1000808188608083E0913402F0913502808176
:101E200080688083E0913402F091350280818F7D5B
:101E300080838FE491E00E94F40784E5282E312C02
:101E40002C0E3D1E8FEF281A380A04E510E00C0F07
:101E50001D1F065F1F4F80E480937C0080917A00F5
:101E6000806480937A0080917A0086FDFCCF609137
:101E7000780070917900072E000C880B990B0E9456
:101E80006F1220E030E040E85AE30E94CE1220E0DA
:101E900030E040EA50E40E94CE126B017C01C09217
:101EA0001602D0921702E0921802F09219020E94D4
:101EB00005036091200270912102072E000C880B0F
:101EC000990B0E946F122B013C014092120250921A
:101ED000130260921402709215020E940503609131
:101EE0001E0270911F02072E000C880B990B0E9496
:101EF0006F124B015C0180920E0290920F02A09231
:101F00001002B09211028091040190910501A091FC
:101F10000601B0910701CB57DF4F88839983AA83CD
:101F2000BB83C558D040A3019201BC01CD010E94E2
:101F3000681287FF89C0A50194016091000170912A
:101F4000010180910201909103010E946812881F93
:101F50008827881F809309028090080190900901CA
:101F6000A0900A01B0900B01A7019601C501B40130
:101F70000E946812881F8827881F80930C0282E2C3
:101F800092E00E944E01181619060CF045C06AE353
:101F9000CE0181589F4F0E94780D6AE0CE0187588C
:101FA0009F4F0E94780D6BE571E0CE0181589F4FE5
:101FB0000E942E0B882309F449C064E471E0CE012D
:101FC00087589F4F0E942E0B91E0811101C090E035
:101FD00090930B028EEF91E00E94E707CD57DF4F01
:101FE00048815981C358D040C158DF4F68817981F9
:101FF000CF57D04082E292E00E94B00085E391E0AA
:102000000E94E707CE0187589F4F0E941E0BCE010A
:1020100081589F4F0E941E0BF0900D02F11009C0D5
:1020200080910C02882309F4BAC180910B028111BE
:10203000B6C161E083E00E944F0264EF71E080E08E
:1020400090E00E94D302C6C180E084CF64E671E0D4
:10205000CE0181589F4F0E942E0B882371F064E4BB
:1020600071E0CE0187589F4F0E942E0B91E08111A5
:1020700001C090E090930A02ADCF6DE671E0CE0111
:1020800081589F4F0E942E0B882371F064E471E009
:10209000CE0187589F4F0E942E0B91E0811101C005
:1020A00090E090930D0296CF67E771E0CE018158E2
:1020B0009F4F0E942E0B882349F082E891E00E94F6
:1020C000E7078EE891E00E94F40784CF67EC71E0A7
:1020D000CE0181589F4F0E942E0B882309F463C0C4
:1020E000CE0101960E94040BAE014E5F5F4F6FEC74
:1020F00071E0CE010B960E94130DFC01892B41F07B
:10210000948190789C60948380829182A282B38231
:10211000AE014E5F5F4F63ED71E0CE010B960E9402
:10212000130DFC01892B81F0948190789C6094833D
:10213000CB57DF4F88819981AA81BB81C558D04098
:1021400080839183A283B383AE014E5F5F4F68EDBE
:1021500071E0CE010B960E94130DFC01892B81F0DA
:1021600040910001509101016091020170910301C1
:10217000948190789C6094834083518362837383BD
:102180008EED91E00E94E70762E272E0CE010196D7
:102190000E94ED0A84E391E00E94F407CE010196CB
:1021A0000E94260B17CF67EE71E0CE0181589F4F3A
:1021B0000E942E0B882309F4E1C0E5961FAE1EAEE7
:1021C000E597E7961FAE1EAEE797E9961FAE1EAEE7
:1021D000E997EB96EEACFFACEB97E114F10411F14B
:1021E000EF96CEACDFACEF97B601CE018D589F4F86
:1021F0000E94500DE5962EAD3FADE5978111A9C027
:102200002115310519F0C9010E945615E5961FAE3A
:102210001EAEE597E9961FAE1EAEE997E7961FAE94
:102220001EAEE797CE018C5A9F4F0E94040BE59695
:102230002EAD3FADE597E9968EAD9FADE997820F44
:10224000931F67964EAD5FAD679769965FAF4EAFD0
:1022500069976D964EAD5FAD6D976B965FAF4EAF64
:102260006B976E961FAE6E97A3961FAEA397AD9613
:102270003FAE2EAEAD9748E0FE01E559FF4FDE01BF
:10228000AD59BF4F01900D924A95E1F748E0FE012C
:10229000ED59FF4FDE01119601900D924A95E1F73D
:1022A00019863B872A879D878C871F86398A288ACB
:1022B00064961FAE1EAE64974AE0B801CE01019647
:1022C0000E94640B6FEC71E0C8010E94480D0097FA
:1022D00009F448C00E942207609308017093090125
:1022E00080930A0190930B0163ED71E084E590E027
:1022F0008C0F9D1F0A960E94480D0097B9F10E940D
:102300002207609304017093050180930601909366
:10231000070168ED71E084E590E08C0F9D1F0A963F
:102320000E94480D009731F10E942207609300013E
:10233000709301018093020190930301CE018C5AA6
:102340009F4F0E94260BCE018D589F4F0E941E0B5F
:1023500041CEE996DFAECEAEE997B701C9010E9442
:10236000AE1660CF60E070E0CB01B6CF60E070E009
:10237000CB01C7CF60E070E0CB01D8CF6FEE71E04A
:10238000CE0181589F4F0E942E0B882309F422CE44
:10239000CE0101960E94040B86EF91E0F3CE80916E
:1023A0000A02811109C080910902882309F449C0F9
:1023B00080910B02811145C061E083E00E944F02D1
:1023C00064EF71E080E090E00E94D30260E083E07F
:1023D0000E944F0280910A02811108C08091090277
:1023E000882389F180910B0281112DC061E08DE07D
:1023F0000E944F0264EF71E080E090E00E94D302FF
:10240000F11008C080910C02882399F180910B0291
:1024100081112FC060E084E00E944F0264EF71E000
:1024200080E090E00E94D30280E090E0892B09F4E4
:1024300012CD0E945A01882309F407CD0E940000A2
:1024400004CD60E0F7CDF110D1CF80910C0288234C
:1024500021F080910B02882349F261E08DE00E9417
:102460004F0264E670E080E090E00E94D30260E0FA
:10247000BECF61E0D0CFE2E2F2E01382128288EEBA
:1024800093E0A0E0B0E084839583A683B78386E1E0
:1024900091E09183808385EC90E09587848784EC3C
:1024A00090E09787868780EC90E0918B808B81EC21
:1024B00090E0938B828B82EC90E0958B848B86EC02
:1024C00090E0978B868B118E128E138E148E08954A
:1024D0000E94AA1208F481E00895E89409C097FBCD
:1024E0003EF490958095709561957F4F8F4F9F4FEB
:1024F0009923A9F0F92F96E9BB279395F69587952F
:1025000077956795B795F111F8CFFAF4BB0F11F4F1
:1025100060FF1BC06F5F7F4F8F4F9F4F16C0882398
:1025200011F096E911C0772321F09EE8872F762FCE
:1025300005C0662371F096E8862F70E060E02AF00F
:102540009A95660F771F881FDAF7880F96958795FB
:1025500097F90895990F0008550FAA0BE0E8FEEFD0
:1025600016161706E807F907C0F012161306E40757
:10257000F50798F0621B730B840B950B39F40A2650
:1025800061F0232B242B252B21F408950A2609F42E
:10259000A140A6958FEF811D811D08950E94E11233
:1025A0000C9452130E94441338F00E944B1320F0F5
:1025B000952311F00C943B130C94411311240C94AB
:1025C00086130E94631370F3959FC1F3950F50E03B
:1025D000551F629FF001729FBB27F00DB11D639FD5
:1025E000AA27F00DB11DAA1F649F6627B00DA11D7B
:1025F000661F829F2227B00DA11D621F739FB00D21
:10260000A11D621F839FA00D611D221F749F332790
:10261000A00D611D231F849F600D211D822F762F29
:102620006A2F11249F5750409AF0F1F088234AF006
:10263000EE0FFF1FBB1F661F771F881F9150504072
:10264000A9F79E3F510580F00C943B130C94861320
:102650005F3FE4F3983ED4F3869577956795B795F9
:10266000F795E7959F5FC1F7FE2B880F911D969513
:10267000879597F9089597F99F6780E870E060E083
:1026800008959FEF80EC089500240A94161617060B
:1026900018060906089500240A9412161306140653
:1026A00005060895092E0394000C11F4882352F0B6
:1026B000BB0F40F4BF2B11F460FF04C06F5F7F4F6E
:1026C0008F4F9F4F089557FD9058440F551F59F055
:1026D0005F3F71F04795880F97FB991F61F09F3F0F
:1026E00079F087950895121613061406551FF2CF38
:1026F0004695F1DF08C0161617061806991FF1CF88
:1027000086957105610508940895E894BB276627AE
:102710007727CB0197F908950E94CE13A59F900DBE
:10272000B49F900DA49F800D911D112408952F92A8
:102730003F924F925F926F927F928F929F92AF9251
:10274000BF92CF92DF92EF92FF920F931F93CF939E
:10275000DF93CDB7DEB7CA1BDB0B0FB6F894DEBF35
:102760000FBECDBF09942A88398848885F846E845B
:102770007D848C849B84AA84B984C884DF80EE80A5
:10278000FD800C811B81AA81B981CE0FD11D0FB6AE
:10279000F894DEBF0FBECDBFED010895A29FB0013A
:1027A000B39FC001A39F700D811D1124911DB29F85
:1027B000700D811D1124911D08955058BB27AA2723
:1027C0000E94F5130C9452130E94441338F00E9497
:1027D0004B1320F039F49F3F19F426F40C94411365
:1027E0000EF4E095E7FB0C943B13E92F0E94631372
:1027F00058F3BA17620773078407950720F079F436
:10280000A6F50C9485130EF4E0950B2EBA2FA02D8F
:102810000B01B90190010C01CA01A0011124FF278D
:10282000591B99F0593F50F4503E68F11A16F04088
:10283000A22F232F342F4427585FF3CF4695379587
:102840002795A795F0405395C9F77EF41F16BA0B4C
:10285000620B730B840BBAF09150A1F0FF0FBB1FFA
:10286000661F771F881FC2F70EC0BA0F621F731F43
:10287000841F48F4879577956795B795F7959E3FA0
:1028800008F0B0CF9395880F08F09927EE0F979531
:10289000879508950E946B1388F09F5798F0B92F81
:1028A0009927B751B0F0E1F0660F771F881F991F85
:1028B0001AF0BA95C9F714C0B13091F00E9485138F
:1028C000B1E008950C948513672F782F8827B85F9F
:1028D00039F0B93FCCF3869577956795B395D9F7DD
:1028E0003EF490958095709561957F4F8F4F9F4FE7
:1028F00008950E94AA1208F48FEF0895AA1BBB1B2B
:1029000051E107C0AA1FBB1FA617B70710F0A61BEF
:10291000B70B881F991F5A95A9F780959095BC0110
:10292000CD010895A1E21A2EAA1BBB1BFD010DC00B
:10293000AA1FBB1FEE1FFF1FA217B307E407F5076F
:1029400020F0A21BB30BE40BF50B661F771F881F4B
:10295000991F1A9469F760957095809590959B01E1
:10296000AC01BD01CF010895EE0FFF1F0590F4915A
:10297000E02D09940F931F93CF93DF93823091053D
:1029800010F482E090E0E091C102F091C20230E0E8
:1029900020E0B0E0A0E0309799F42115310509F46A
:1029A0004AC0281B390B24303105D8F58A819B8118
:1029B0006115710589F1FB0193838283FE0111C0CA
:1029C000408151810281138148175907E0F048176F
:1029D000590799F4109761F012960C931297139679
:1029E0001C933296CF01DF91CF911F910F910895E3
:1029F0000093C1021093C202F4CF2115310551F0AA
:102A00004217530738F0A901DB019A01BD01DF012C
:102A1000F801C1CFEF01F9CF9093C2028093C102B8
:102A2000CDCFFE01E20FF31F819391932250310924
:102A300039832883D7CF2091BF023091C002232B46
:102A400041F420910E0130910F013093C002209388
:102A5000BF0220910C0130910D012115310541F487
:102A60002DB73EB74091100150911101241B350B39
:102A7000E091BF02F091C002E217F307A0F42E1B11
:102A80003F0B2817390778F0AC014E5F5F4F2417D2
:102A9000350748F04E0F5F1F5093C0024093BF02AE
:102AA000819391939FCFF0E0E0E09CCFCF93DF93B1
:102AB0000097E9F0FC01329713821282A091C102C3
:102AC000B091C202ED0130E020E01097A1F4208126
:102AD0003181820F931F2091BF023091C0022817CD
:102AE000390709F061C0F093C002E093BF02DF91A3
:102AF000CF910895EA01CE17DF07E8F54A815B819F
:102B00009E0141155105B1F7E901FB83EA83499123
:102B10005991C40FD51FEC17FD0761F48081918195
:102B20000296840F951FE90199838883828193819E
:102B30009B838A83F0E0E0E012968D919C9113973D
:102B40000097B9F52D913C911197CD010296820F16
:102B5000931F2091BF023091C0022817390739F620
:102B6000309751F51092C2021092C102B093C00288
:102B7000A093BF02BCCFD383C28340815181840F15
:102B8000951FC817D90761F44E5F5F4F88819981FF
:102B9000480F591F518340838A819B81938382838D
:102BA0002115310509F0B0CFF093C202E093C102C4
:102BB0009ECFFD01DC01C0CF13821282D7CFB0E0DF
:102BC000A0E0E5EEF5E10C9499138C01009751F427
:102BD000CB010E94BA148C01C801CDB7DEB7E0E189
:102BE0000C94B513FC01E60FF71F9C01225031092C
:102BF000E217F30708F49DC0D901CD91DC9111973C
:102C0000C617D70798F0C530D10530F3CE01049729
:102C10008617970708F3C61BD70B2297C193D1934A
:102C20006D937C93CF010E945615D6CF5B01AC1AF1
:102C3000BD0A4C018C0E9D1EA091C102B091C20232
:102C4000512C412CF12CE12C109731F58091BF02D1
:102C50009091C0028815990509F05CC04616570688
:102C600008F058C080910C0190910D01009741F43B
:102C70008DB79EB74091100150911101841B950BA7
:102C8000E817F90708F055C0F093C002E093BF02BF
:102C9000F90171836083A0CF8D919C911197129659
:102CA0006C90129713967C901397A815B90559F557
:102CB0006C0142E0C40ED11CCA14DB0420F1AC014B
:102CC0004A195B09DA011296159780F062827382C5
:102CD00051834083D9016D937C93E114F10471F029
:102CE000D7011396FC93EE93129776CF22968C0F12
:102CF0009D1FF90191838083F301EFCFF093C2020E
:102D0000E093C10269CF4816590608F42C017D01F1
:102D1000D3019ACFCB010E94BA147C01009749F0ED
:102D2000AE01B8010E949C16C8010E945615870189
:102D300053CF10E000E050CFFB01DC0102C0019056
:102D40000D9241505040D8F70895FB01DC018D9160
:102D5000019080190110D9F3990B0895FB01DC0152
:0E2D600001900D920020E1F70895F894FFCF46
:102D6E00000020420000F041CDCC8C3F0000C30299
:102D7E008000000000009001B000DD00DD014E017A
:102D8E00EC0040012F2F22225C5C6208660C6E0A5A
:102D9E00720D7409000D0A005C7530303030006E13
:102DAE00756C6C00747275650066616C7365006994
:102DBE006E697469616C697A653A006F76657272D4
:102DCE00696465007573657242757A7A007573650C
:102DDE007256616C766500646576696365496E66E8
:102DEE006F00646576696365496E666F3A007B2293
:102DFE006E616D65223A224669726520416C617280
:102E0E006D206D6F64656C222C2276657273696F0E
:102E1E006E223A2276302E30222C226964223A22F9
:102E2E0061626364227D0067657443617073006341
:102E3E006F320074656D700068756D69640067654A
:102E4E0074436170733A00736574436170730075F7
:102E5E007064617465007570646174653A006163D5
:042E6E006B3A0000BB
:00000001FF
